:02000004002ECC
:080000001703DA276700A316BD
:020000042808CA
:100000009711F9FF938101B217D1F9FF130181DF35
:10001000EF7040331705F9FF13054539230005003C
:10002000EF70404419E1EF70204697020000938280
:10003000621D7390723097020000938222157390B4
:10004000523073102034EF7060342A84EF608339AB
:10005000EF60831F1705F9FF1305C5FA9705F9FF30
:100060009385C5FA17060400130606ADEF60432713
:100070001705F9FF130585F99705F9FF9385852A7B
:10008000170604001306C6ABEF6083251705F9FFBA
:10009000130545299705F9FF9385C5301706040018
:1000A000130686DBEF60C3231705F9FF1305852FC1
:1000B0009705F9FF9385052F170604001306C6E17F
:1000C000EF600322170518001305C5F397251800E4
:1000D000938545B4172604001306866EEF6043200F
:1000E00019CC1705F8FF1305E5219775F8FF9385DF
:1000F000E524179603001306A6A0EF60631E1705FC
:10010000F9FF1305252B9775F9FF9385E5F4EF604B
:10011000E3221775F9FF130525F49775F9FF938509
:10012000A502EF60A3211775F9FF1305E501977587
:10013000F9FF93856501EF60632019C81775F8FF13
:10014000130545209785F8FF938505B4EF60031FDD
:1001500009C437D53F0008450295EF70F8B2EF604B
:10016000A323EF70F8BAEF60630D1785F8FF13054E
:10017000E5B197A5F8FF9385E53F17060400130640
:10018000A6D56F60E3158280732220349771F8FF43
:1001900023AA411A732210349771F8FF23A6411A3B
:0A01A00001A00100010000000000B2
:0401F0006FA0D139F2
:1001F400000000000000000000000000401A082871
:10020400421A0828441A082800000000461A082840
:10021400481A0828000000004A1A08284C1A08281E
:100224004E1A082800000000501A0828521A0828FC
:10023400000000000000000000000000541A08281C
:10024400541A0828541A0828541A0828541A082832
:10025400541A0828541A0828541A0828541A082822
:10026400000000000000000000000000000000008A
:10027400000000000000000000000000541A0828DC
:10028400000000000000000000000000000000006A
:10029400000000000000000000000000000000005A
:1002A400000000000000000000000000000000004A
:1002B400000000000000000000000000541A08289C
:1002C400541A0828541A0828541A0828541A0828B2
:1002D400541A08280000000000000000541A0828DE
:1002E400000000000000000000000000000000000A
:1002F400000000000000000000000000BC620B28A9
:1003040000000000000000000000000000000000E9
:1003140000000000000000000000000000000000D9
:1003240000000000000000000000000000000000C9
:1003340000000000000000000000000000000000B9
:1003440000000000000000000000000000000000A9
:100354000000000000000000000000000000000099
:100364000000000000000000000000000000000089
:10037400541A0828000000000000000000000000DB
:100384000000000000000000000000000000000069
:100394000000000000000000000000000000000059
:1003A4000000000000000000000000000000000049
:1003B4000000000000000000000000000000000039
:1003C4000000000000000000000000000000000029
:1003D4000000000000000000000000000000000019
:1003E4000000000000000000000000000000000009
:1003F40000000000000000000000000000000000F9
:10040400000000000000000000000000541A08284A
:10041400541A08280000000000000000000000003A
:1004240000000000000000000000000000000000C8
:1004340000000000000000000000000000000000B8
:1004440000000000000000000000000000000000A8
:100454000000000000000000000000000000000098
:100464000000000000000000000000000000000088
:100474000000000000000000000000000000000078
:100484000000000000000000000000000000000068
:100494000000000000000000000000000000000058
:1004A4000000000000000000000000000000000048
:1004B4000000000000000000000000000000000038
:1004C4000000000000000000000000000000000028
:1004D4000000000000000000000000000000000018
:1004E4000000000000000000000000000000000008
:1004F40000000000000000000000000000000000F8
:1005040000000000000000000000000000000000E7
:1005140000000000000000000000000000000000D7
:1005240000000000000000000000000000000000C7
:1005340000000000000000000000000000000000B7
:1005440000000000000000000000000000000000A7
:1005540000000000541A0828541A0828541A0828BD
:100564000000000000000000000000000000000087
:100574000000000000000000000000000000000077
:100584000000000000000000000000000000000067
:100594000000000000000000000000000000000057
:1005A4000000000000000000000000000000000047
:1005B4000000000000000000000000000000000037
:1005C4000000000000000000000000000000000027
:1005D40000000000541A0828000000000000000079
:1005E4000000000000000000000000000000000007
:1005F400541A0828541A08280000000000000000BB
:1006040000000000000000000000000000000000E6
:1006140000000000000000000000000000000000D6
:1006240000000000000000000000000000000000C6
:1006340000000000000000000000000000000000B6
:10064400000000000000000000000000541A082808
:100654000000000000000000000000000000000096
:100664000000000000000000000000000000000086
:100674000000000000000000000000000000000076
:100684000000000000000000000000000000000066
:1009C400461B0828B21B0828D01B0828D41B08285B
:1009D400861B0828CC1B0828661B0828561B0828D9
:1009E400601E0828901E0828A41E08287C1E0828BB
:1009F400861E08282E21082812210828F6200828F7
:100A0400DE200828C4200828AA20082890200828C6
:100A14004E21082898060028900600281006002871
:100A2400CE240828E2240828F62408280A250828C1
:100A34001E250828342508284A2508286025082862
:100A4400762508288C250828AE2408288E24082812
:100A540008020304050607090A0C0E1012141617DF
:100A6400191A1B1C1E1F202122232425262728296E
:100A74002A2B2C2D2E2F3031323334353637383F54
:100A84003D3E434041424448494A4B4C4D4E5054EC
:100A94006E6F55565758595A5B5C5E5F606263646B
:100AA4006566696C6A6B6D71737576778578797A2A
:100AB4007B7C7F8081828384868788898A8B8C8DE6
:100AC4008E8F9091929394999AC1C2C3C4C5C6C79C
:100AD400C8C9D2D3FFFFFFFF0000000000000000E0
:100AE40000000000000000000200000004000000FC
:100AF4000B000000160000000000000000000000D1
:100B040000000000000000000000000030000000B1
:100B1400180000000C00000058000000480000000D
:100B240024000000120000004800000090000000B3
:100B3400D900000021010000B101000042020000C0
:100B44008A020000D202000041000000820000007E
:100B5400C300000004010000860100000802000038
:100B6400490200008A02000056000000AC000000A8
:100B7400020100005801000004020000B00200005D
:100B8400060300005C030000080400007B0400006E
:100B94000A0500009A05000051000000A3000000AF
:100BA400F400000045010000E80100008A02000092
:100BB400DB0200002D030000CF0300003B04000013
:100BC400C30400004A050000490000009200000030
:100BD400DB00000025010000B7010000490200000D
:100BE40092020000DB0200006E030000CF0300004D
:100BF40049040000C30400000100000000000000DC
:100C040001000000010000000100000000000000DD
:100C140000000000010000000000000001000000CE
:100C240000000000010000000100000000000000BE
:100C340014D40048030000000001000000D500485F
:100C44000300008000011F0104D500480300008058
:100C540000011F0108D500480300008000011F01A6
:100C64006C2B0028482B0028040000006F2B002860
:100C74004C2B002806000000722B0028522B002861
:100C840006000000752B0028582B002806000000E1
:100C9400782B00285E2B002806000000642B002817
:100CA4003C2B002806000000672B0028422B00285C
:100CB400060000007EA4082856A408285AA4082880
:100CC4005EA4082862A4082866A4082852A4082858
:100CD4000100000002000000030000000500000005
:100CE40009000000070000000600000008000000E2
:100CF40026F208280CF30828FAF20828EEF208284D
:100D0400DCF20828CEF2082872F308287EF30828BB
:100D140088F308288EF3082896F3082856F3082841
:100D240062F3082856F308286AF308283C736C65B4
:100D340065703E000C6808481C6808482C68084820
:100D44003C6808484C6808485C6808486C6808486F
:100D54007C6808488C6808489C680848AC6808485F
:100D6400BC680848CC680848DC680848EC6808484F
:100D7400FC6808480C69084800010000E400000011
:100D8400CB000000B5000000A100000090000000AE
:100D94008000000072000000650000005A0000009E
:100DA400000200003E02000085020000D3020000A1
:100DB4002B0300008E030000FE0300007A040000F1
:100DC40006050000A30500005306000019070000F3
:100DD400F6070000FA000000F4010000E803000038
:100DE400D0070000A00F0000401F0000803E00005C
:100DF400007D000000FA0000288D09282E8D0928A6
:100E0400348D09283C8D0928428D0928488D0928EC
:100E1400508D09285A8D0928608D09286A8D092862
:100E2400188D0928208D09280624303C7895091D41
:100E340031455900429F0928789E0928129E0928A5
:100E4400309E0928429E0928669E0928429F092847
:100E5400289C092800000000010000000100000097
:100E64000100000001000000010000000200000079
:100E74000200000002000000020000000200000066
:100E8400EEAF0928F8AF092802B009280CB00928E8
:100E940016B0092822B00928D2AF0928AEAF092814
:100EA40016B7092820B709282AB709280CB7092832
:100EB40002B709289EB70928A8B70928B2B7092894
:100EC40094B709288AB70928F6B70928FEB709286C
:100ED40006B809280EB8092816B809281EB8092822
:100EE40026B8092830B80928ECB70928E2B7092838
:100EF40066B809286EB8092876B809287EB8092882
:100F040086B809288EB8092896B80928A0B80928EF
:100F14005CB8092852B80928DAB80928E4B80928BD
:100F2400EEB80928F8B8092802B909280CB9092823
:100F340016B9092822B90928CEB80928C2B809283F
:100F440030E0084834E0084838E008483CE0084805
:100F540040E0084844E0084848E008484CE00848B5
:100F640010E1084814E1084818E108481CE1084861
:100F740020E1084824E1084828E108482CE1084811
:100F84006C8C0948708C0948748C0948788C094821
:100F94007C8C0948808C0948848C0948888C0948D1
:100FA400F88B0948FC8B0948008C0948048C0948D3
:100FB400088C09480C8C0948108C0948148C094881
:100FC400D88B0948DC8B0948E08B0948E48B094835
:100FD400E88B0948EC8B0948F08B0948F48B0948E5
:100FE40043414C44455200003533305F37370000ED
:100FF40086E1092838E109281EE1092816E10928B3
:10100400CCE00928C4E009285AE00928C6DB0928ED
:1010140052E00928C6DB09284AE0092824E0092807
:1010240004E00928EEDF0928E6DF0928DEDF0928C5
:10103400ACDF09288ADF09284CDF092844DF0928A6
:10104400C6DB092828DF092820DF0928F0DE092863
:10105400D8DE0928D0DE0928C8DE0928C0DE092820
:10106400A4DE09288EDE092880DE0928C6DB0928CB
:10107400C6DB092848DE092834DE0928E6DD09280C
:10108400DEDD0928D0DD0928C8DD0928D6DD0928D8
:10109400DCDC09282EDC092826DC09280CDC0928DC
:1010A40004DC0928FCDB0928F4DB0928ECDB09282B
:1010B40096E709285CE709285CE70928B6E70928C8
:1010C400C4E70928D2E709285CE70928F4E70928D6
:1010D4000EE809284AE809286AE8092894E8092852
:1010E400BEE80928D8E809285CE7092834E9092872
:1010F40052E90928E2E909285CE70928F0E9092806
:10110400FEE909280CEA09281AEA0928AC140A2875
:10111400AC140A28FE140A28AC140A28AC140A28B1
:10112400AC140A2804150A28AC140A28AC140A289A
:10113400F8140A28AC140A28F2140A28EC140A2811
:10114400AC140A28AC140A28AC140A28AC140A28D3
:10115400AC140A28E2140A28AC140A28AC140A288D
:10116400AC140A28AC140A28AC140A28D8140A2887
:10117400AC140A28AC140A28AC140A28AC140A28A3
:10118400AC140A28AC140A28AC140A28AC140A2893
:10119400AC140A28AC140A28AC140A28CE140A2861
:1011A400AC140A28AC140A28AC140A28AC140A2873
:1011B400AC140A28AC140A28AC140A28AC140A2863
:1011C400AC140A28AC140A28AC140A28C4140A283B
:1011D400AC140A28AC140A28AC140A28AC140A2843
:1011E400AC140A28BA140A28B4140A28BA160A280D
:1011F400E0160A28CE160A28BC160A28AA160A28B7
:10120400BC160A28122B0A284A2B0A284E2B0A2815
:10121400342B0A285A2B0A28522B0A28562B0A2820
:101224005E2B0A28622B0A28902B0A28942B0A2862
:10123400662B0A28622B0A28622B0A28622B0A28AA
:10124400622B0A286A2B0A28702B0A28762B0A2874
:10125400622B0A287A2B0A28802B0A28862B0A2834
:101264008C2B0A28DA210000C8320000B5430000A4
:10127400906500006A8700005898000045A90000A6
:101284005046000078690000A08C0000F0D20000F5
:1012940000FA000000FA000000FA0000FF7FFD7F62
:1012A400F67FE97FD87FC27FA77F877F627F387F01
:1012B400097FD57E9D7E5F7E1D7ED67D8A7D397DAC
:1012C400E37C897C297CC57B5D7BEF7A7D7A057A1A
:1012D4008A7909798478FA776C77D9764176A57515
:1012E40004755F74B573077355729E71E270237051
:1012F4005F6F966ECA6DF96C246C4A6B6D6A8C696B
:10130400A668BD67CF66DD65E864EF63F262F161EC
:10131400EC60E35FD75EC75DB45C9D5B825A645941
:1013240042581D57F555CA549B5369523351FB4FCC
:10133400BF4E814D3F4CFB4AB44969481C47CD45DB
:101344007A442543CE417340173FB83D563CF23AA8
:101354008C392438BA364D35DE336E32FB30872F64
:10136400112E982C1F2BA3292628A8262825A6232E
:1013740023229F20191F931D0B1C821AF8186D1726
:10138400E2155514C8123911AB0F1B0E8B0CFB0A56
:101394006A09D9074706B604240392010000000035
:1013A400050000000600000007000000080000001F
:1013B400090000000A0000000B0000000B00000000
:1013C4000C0000000D0000000D0000000E000000E5
:1013D4000E0000000F0000000F0000000F000000CE
:1013E4000F0000000F00000010000000B4A50A2840
:1013F400C2A50A28D0A50A28A6A50A2898A50A28BD
:10140400A2A80A28A2A80A28A2A80A281EAB0A2869
:1014140012AB0A288EA80A288EA80A288EA80A28A1
:101424008EA80A288EA80A288EA80A288EA80A2818
:101434008EA80A288EA80A288EA80A288EA80A2808
:101444008EA80A288EA80A288EA80A288EA80A28F8
:101454008EA80A288EA80A288EA80A288EA80A28E8
:101464008EA80A288EA80A288EA80A288EA80A28D8
:101474008EA80A288EA80A288EA80A288EA80A28C8
:101484008EA80A288EA80A288EA80A288EA80A28B8
:101494008EA80A288EA80A288EA80A288EA80A28A8
:1014A4008EA80A288EA80A288EA80A288EA80A2898
:1014B4008EA80A288EA80A288EA80A288EA80A2888
:1014C4008EA80A288EA80A288EA80A288EA80A2878
:1014D4008EA80A288EA80A288EA80A288EA80A2868
:1014E4008EA80A288EA80A288EA80A288EA80A2858
:1014F4008EA80A288EA80A288EA80A288EA80A2848
:10150400BAAA0A286AAA0A2812AA0A28C4A90A286E
:10151400ACA90A28A4A90A2880A80A2882A90A280A
:1015240062A90A288EA80A288EA80A288EA80A2842
:101534008EA80A288EA80A288EA80A288EA80A2807
:101544008EA80A288EA80A288EA80A288EA80A28F7
:101554008EA80A288EA80A288EA80A288EA80A28E7
:101564008EA80A288EA80A288EA80A288EA80A28D7
:101574008EA80A288EA80A288EA80A288EA80A28C7
:1015840058A90A284EA90A2846A90A283EA90A28C1
:1015940036A90A282EA90A2826A90A281EA90A2833
:1015A4008EA80A288EA80A288EA80A288EA80A2897
:1015B4008EA80A288EA80A288EA80A288EA80A2887
:1015C4008EA80A288EA80A288EA80A288EA80A2877
:1015D4008EA80A288EA80A288EA80A288EA80A2867
:1015E4008EA80A288EA80A288EA80A288EA80A2857
:1015F4008EA80A288EA80A288EA80A288EA80A2847
:1016040014A90A280AA90A2800A90A28F6A80A2857
:10161400ECA80A28E2A80A28D8A80A28CEA80A28EA
:10162400C4A80A28BAA80A28B2A80A28537461725E
:10163400747570207461736B00000000E8FFFFFF95
:10164400F4FFFFFF000000000C0000001800000081
:101654004000000000000000000000000000000046
:101664000000000000000000000000000000000076
:101674000000000000000000000000000000000066
:1016840014CF0A2828CF0A283CCF0A2850CF0A288A
:10169400F4CE0A28D4CE0A28C4CF0A28D8CF0A28E0
:1016A400ECCF0A2800D00A28A4CF0A2884CF0A281D
:1016B40054F70A2854F70A28A4F70A2854F70A28E2
:1016C400A8F70A2854F70A2854F70A2854F70A28CE
:1016D40054F70A2854F70A2854F70A288CF70A28DA
:1016E40054F70A2854F70A2854F70A2854F70A2802
:1016F40054F70A2854F70A2890F70A2854F70A28B6
:1017040054F70A2854F70A2894F70A2854F70A28A1
:1017140098F70A2854F70A2854F70A2854F70A288D
:1017240054F70A2854F70A2854F70A2854F70A28C1
:1017340054F70A2854F70A2854F70A2854F70A28B1
:101744009CF70A2854F70A2854F70A2854F70A2859
:1017540054F70A2854F70A2854F70A2854F70A2891
:1017640054F70A2854F70A2854F70A2854F70A2881
:10177400A0F70A2854F70A2854F70A2854F70A2825
:1017840054F70A2854F70A2854F70A2854F70A2861
:1017940054F70A2854F70A2854F70A2854F70A2851
:1017A40054F70A2854F70A2854F70A2854F70A2841
:1017B40054F70A2854F70A2854F70A2854F70A2831
:1017C40054F70A2854F70A2854F70A2854F70A2821
:1017D40088F70A284800000090000000D9000000A3
:1017E40021010000B1010000420200008A02000051
:1017F400D20200004100000082000000C30000008B
:1018040004010000860100000802000049020000F3
:101814008A02000056000000AC0000000201000033
:101824005801000004020000B0020000060300009A
:101834005C030000080400007B0400000A050000AB
:101844009A05000051000000A3000000F40000000D
:1018540045010000E80100008A020000DB020000EC
:101864002D030000CF0300003B040000C30400006C
:101874004A0500004900000092000000DB0000005F
:1018840025010000B7010000490200009202000097
:10189400DB0200006E030000CF03000049040000D7
:1018A400C304000016080B2810080B2806080B2890
:1018B40000080B28E6070B281E080B28C8330B2842
:1018C4000E320B283A320B28AA330B28B8330B28D4
:1018D4003A320B282E320B282E320B283A320B28A0
:1018E400D0390B2868390B2850390B28B8390B2804
:1018F400A0390B2884390B280E4C0B28F44B0B28E9
:10190400DA4B0B28C04B0B28A44B0B282A4C0B2872
:1019140000000000000000000503010006040200AE
:101924000001020203030303040404040404040482
:101934000505050505050505050505050505050553
:101944000606060606060606060606060606060633
:101954000606060606060606060606060606060623
:101964000707070707070707070707070707070703
:1019740007070707070707070707070707070707F3
:1019840007070707070707070707070707070707E3
:1019940007070707070707070707070707070707D3
:1019A40008080808080808080808080808080808B3
:1019B40008080808080808080808080808080808A3
:1019C4000808080808080808080808080808080893
:1019D4000808080808080808080808080808080883
:1019E4000808080808080808080808080808080873
:1019F4000808080808080808080808080808080863
:101A04000808080808080808080808080808080852
:101A14000808080808080808080808080808080842
:101A24002464A50005192D41555D00000605050631
:041A34000707080890
:101A400001A001A001A001A001A001A001A001A08E
:101A500001A001A001A00000511106C4EF70D880C0
:101A6000A2407D553101828000000000835745006F
:101A7000111126C806CC22CA3EC421472EC20441F9
:101A8000637CF714138777FF699F9357370013849C
:101A9000170016043EC6B38784003EC037140248C0
:101AA00094401245938404022320D48083A644FEEC
:101AB0002320D48083A684FE2320D48083A6C4FE62
:101AC0002320D48083A604FF2320D48083A644FF50
:101AD0002320D48083A684FF2320D48083A6C4FF40
:101AE0002320D480EF60D8840100010001000100B0
:101AF00001000100010001000100010001000100DE
:101B000001000100010001000100010001000100CD
:101B100001000100010001008247E393F4F8A247AD
:101B2000138787FFB247B307F040B3E7E720E99F89
:101B30003EC4A247371708281307479C9D8BB3C79D
:101B4000E7209C4382878247984391073EC0B7179E
:101B5000024823A0E7808247984391073EC0B71709
:101B6000024823A0E7808247984313844700B717B1
:101B7000024823A0E7801840930744003EC0B717EF
:101B8000024823A0E7808247984313844700B71791
:101B9000024823A0E7801840B7170248110423A089
:101BA000E7801840930744003EC0B717024823A0BF
:101BB000E7808247524412459843E240C244B71737
:101BC000024823A0E78071016F6088F6024465B780
:101BD0000244C1BF0244C1B726C0A1BF511122C2F5
:101BE0002A8437050028A2851305856706C4EF708F
:101BF000B8F3A2851244A2403705002813050567F3
:101C000031016F7078F200004111AE8706C60947B6
:101C1000AA856383E7046365F7029DE7370500281B
:101C2000130585692EC0EF7038F08245370500280E
:101C300013050569EF7058EF0145B24041018280FC
:101C40000D470945E39BE7FE370500281305055BB3
:101C5000EF7098ED0145D5B73705002813050561EC
:101C6000EF7098EC0145D1BF00000000894763E3A5
:101C7000A702B7170828938787A13345F5201C4191
:101C800003D7470063F7E5009C43B3C7F52090C333
:101C9000828091E28280E39FE5FE944313871500E2
:101CA000B3C5D52090C12392E700828000000000D8
:101CB000511122C22A8437050028A28513058568A0
:101CC00006C4EF7078E6A2851244A24037050028CA
:101CD0001305056831016F7038E50000E19D05E5E9
:101CE0009387C5003707002893061005130787461A
:101CF0008607E59FB3C7D70AB3E7A70AE59FB3A74F
:101D0000E720888782809397150093061005370790
:101D10000028938737021307C750E59FB3C7D70A38
:101D20008146B3E7D70AB3A7E720888782800000FF
:101D3000130141F722C326C106C58A840144B7179F
:101D40000028010083A6C7B1619C014583C5A60296
:101D500083C686028904B305B4020504B695E59DE1
:101D6000EF6008AA9376F40F239FA4FE13070002E6
:101D7000B7170028659CE397E6FC84000144010046
:101D800083A6C7B1619C054583C5A60283C696029A
:101D90008904B305B4020504B695E59DEF6048A635
:101DA0009376F40F239FA4FE13070002B7170028B1
:101DB000659CE397E6FC835701003707090037036A
:101DC0000128BA971303033BB70601282320F30029
:101DD000130721009386463B9305E1033C87108758
:101DE0001107B207B2979CC29106E399E5FE8357AB
:101DF00001040357E103B706030037050128B6972E
:101E00001305453FB70601282320E3041CC113072F
:101E100021049386863F9305E10701003C871087E4
:101E20001107B207B2979CC29106E399E5FE83576A
:101E3000E107AA401A443CC18A441301C1088280C8
:101E40000DE9B707012803A74732914763E1C702AD
:101E5000B71708289387479E3346F6201C4282878F
:101E600033A7E5201C879D8AE19BD58F1C8F6F606F
:101E70002898B707012803A78732C1BF33A7E520F9
:101E8000548B6F60E896B3A5E520948D6F604896FB
:101E900033A7E5201C878D8A8E069D9BD58F1C8FCE
:101EA0006F60089533A7E5201C879D8A960693F7F7
:101EB000F7F1D58F1C8F6F60A8930000F59999C535
:101EC000054789476384E5103E85828037070028EF
:101ED00083568743B7070F0037160248BE9693070D
:101EE00087432320D6809385E700130787430100AB
:101EF000348709072320D680E31CB7FE01000100C8
:101F000001000100010001000100010001000100C9
:101F100001000100010001000100010001000100B9
:101F2000010001000100010001000100B715024895
:101F3000938607013E87010003560701090723A086
:101F4000C580E31BD7FE0100010001000100010074
:101F50000100010001000100010001000100010079
:101F60000100010001000100010001000100010069
:101F700001000100010037160248010003D70702E3
:101F800089072320E680E39BD7FE010001000100C2
:101F90000100010001000100010001000100010039
:101FA0000100010001000100010001000100010029
:101FB00001000100010001000100511106C4EF60A1
:101FC00028B7A24081473E8531018280B7072100B2
:101FD00037170248C1072320F78095679387274367
:101FE0002320F780D9BF0000511106C437170248DB
:101FF000B7071B002320F780B707002893874742C5
:102000009443CC4390472320D780D4472320B780E4
:102010009C4B2320C7802320D7802320F780EF60AC
:1020200028B1A24001453101828000003707002815
:102030001307C7415C831483370615009A075111B3
:10204000B29706C4B6973716024874832320F680E9
:10205000834747002C8313976600B207BA97AE9761
:102060002320F680EF60C8ACA24001453101828098
:1020700000000000DD4763E9A7029D4763E6B70261
:10208000B71708289387879FB3C5F5209C4182879F
:10209000B707012883A70732058A0E063325F520E6
:1020A0001C85DD9BD18F1C8D8280B707012803A77B
:1020B0000732058A0A063327E5201C87ED9BD18F5E
:1020C0001C8F8280B707012803A70732058A0606FE
:1020D0003327E5201C87F59BD18F1C8F8280B707A3
:1020E000012803A70732058A3327E5201C87F99BBF
:1020F000D18F1C8F8280B707012803A707323D8A42
:1021000012063327E5201C8793F7F7F0D18F1C8F39
:102110008280B707012803A707321D8A22063327CA
:10212000E5201C8793F7F78FD18F1C8F8280B7072C
:10213000012803A70732E1763D8A3327E5201C8773
:102140009386F67F2E06F58FD18F1C8F8280B7077E
:10215000012883A70732B327F520908F82800000E3
:10216000914763EAB70009E985476301F6068947A5
:102170006306F6040DCA82807D150547E36DA7FE50
:10218000630AF60695476300F6068D47E315F6FEEB
:10219000B70700289387C741AE97988392063D8B77
:1021A000558F988B8280B707002893874742B3C723
:1021B000F5209887C206558F98C38280B7070028FC
:1021C00093874742B3C7F52094C38280B70700289E
:1021D00093874742B3C7F52098434176E99E718FB4
:1021E000558F98C38280B70700289387C741AE9761
:1021F000948B8280B70700289387C741AE97988356
:10220000BD8A419B558F988B82800000232005203A
:10221000828000006F7048A900000000B7070248E4
:102220003E951C41B395D50033F6C740D18D0CC106
:1022300082800000B7070248AA97944303A50520AF
:10224000930715003347B52014C323A0F5208280DF
:1022500000000000211106CA22C826C66359A00248
:10226000B3A7B520939447009D8C938734FF3EC459
:1022700037070001B70702482A843E967D17010000
:1022800004427D14659C91ED6397E40075F8B707EF
:1022900000019384F7FFD24042442685B244610195
:1022A000828022452EC232C0EF60889BB7070001B2
:1022B000924502461387F7FFC1BF00008981B3A58D
:1022C000B520939745008D8F3111CD173EC0B707CC
:1022D000024822C6AA973704000126C406C83EC297
:1022E00099447D140245EF60A897924788439387ED
:1022F000F4FFB3C4070863138500EDF4C240324411
:10230000A2445101828000009307301F63CCB700C4
:1023100085476308F50409476308E5000DC5856531
:102320009385C5572E85828011476341B706638424
:10233000F508638EA50685679387E773B3C5B52057
:10234000BE95ED9DC5B7B94763CBB704638DF50462
:102350008567FD159387C796B3C5B520BE95ED9DDE
:10236000D1B71307100BB3C7B520E99F6349B70076
:10237000056713078738BA979395576065B7056760
:10238000130707FABA979395576069BF8567ED15EC
:1023900093877775B3C5B520BE95ED9D61B785650B
:1023A0009385A59841B785659385459BA5BF8565B0
:1023B0009385F57285BF856593853574A5B7000053
:1023C0002A878DED85679387479B35456307F7021D
:1023D000FD77938747693305F70095473345F50245
:1023E000659D8280FD779387178D3307F500D14770
:1023F0003347F70271071315476082808547E393DF
:10240000F5FEFD76938746BC334605081303C008E6
:10241000B305F600E99D637CB302938746A8B30534
:10242000F6001305C00DE99D637AB5029386F69810
:1024300036960145699EE362C3FCB307D700514756
:10244000ED9FB3C7E702D1071395476082803E95A1
:10245000D1476D9D3345F502659D82803305F700B8
:10246000D1476D9D3345F5022105659D82800000B1
:102470009307400363ECA702AD4763E9B702B717C0
:102480000828938747A2B3C5F5209C418287B717D8
:10249000002837170028B146938707873325A520E2
:1024A000230ED7843345F520A305C5008280B717D6
:1024B000002837170028AD46938707873325A520C6
:1024C000230ED7843345F5202305C5008280B71736
:1024D0000028938707873325A5203345F5201089E9
:1024E0008280B7170028938707873325A5203345B7
:1024F000F52050898280B7170028938707873325F6
:10250000A5203345F52030898280B71700289387AE
:1025100007873325A5203345F52070898280B717BA
:102520000028938707873325A5203345F52023020C
:10253000C5008280B7170028938707873325A52019
:102540003345F520A302C5008280B7170028938782
:1025500007873325A5203345F5202303C500828056
:10256000B7170028938707873325A5203345F52023
:10257000A303C5008280B7170028938707873325F8
:10258000A5203345F5202304C5008280B717002815
:10259000938707873325A5203345F520A304C5007D
:1025A00082800000B54763E3A70091C18280B7171E
:1025B000002893870786AA97908B828000000000EE
:1025C000511122C206C42A843285B9E9EF6058C984
:1025D000B717002893870786AA979C833717F300BD
:1025E00013070730BA97371702482320F780B70739
:1025F000002883C6877F99CEB70700289387C77ABC
:1026000037160248B3C6F620984391072320E68088
:10261000E39CD7FE22851244A24031016F5058D16D
:10262000EF6018C4B717002803C6C7853325A52057
:10263000931625001DCA37070028B7150028130771
:10264000C77F93850587371502483366E62001006A
:1026500083474700032307002107B697AE979C8363
:102660009A972320F580E315C7FEB707002883C695
:10267000877ACDD2B70700289387077737160248A5
:10268000B3C6F620984391072320E680E39CF6FE2C
:1026900022851244A24031016F5098C90000000009
:1026A00015E1B707002803C5877F1387877FB70722
:1026B00000284D439387C77A63F3A502B3C7F5207B
:1026C00090C38280B707002803C5877A1387877A6B
:1026D000B7070028394393870777E3E1A5FE99C23E
:1026E0006303B5008280E37F65FE93061500148BBB
:1026F0003345F52010C1828000000000B717002884
:102700002386A7AE82800000B7170028938707AF03
:1027100037170028232EF7B03707010113071710CA
:10272000D8C76F50F88C0000B707012893878743FC
:1027300037770128232AF70423A007200145828048
:1027400000000000B777012883A747053707024834
:102750003A9523A007200CC13E856F5078BD00003C
:10276000B777012803A747052320072011CE370399
:1027700002483346A62001001C41944111059A9756
:1027800094C39105E31AC5FE3A856F5078BA0000EC
:10279000B70702483E95084182800000B71700281D
:1027A00083A7C7B188CF828000000000511122C2E8
:1027B0003774012803254405814526C006C4B71493
:1027C0000028EF50788403A7C4B18947184F6309E4
:1027D000F70203254405EF50388283A7C4B10325CF
:1027E00044058C4FEF50588303254405EF50D883A0
:1027F000032544051244A240824431016F5058829F
:10280000032544058945EF503880E1B700000000FA
:10281000B717002883A7C7B1C8D382800000000083
:10282000211126C6B714002883A6C4B106CA22C83F
:10283000D84AC8CA2A84133717003AC2EF50D8AE14
:1028400083A6C4B137770128AA87032547052398B3
:10285000F600A2853EC0EF50B8EF37770128032578
:1028600047050246A285EF5028DD12479336140033
:10287000639EE60A03A7C4B11C4F3EC2B9E3B77614
:10288000012803A54605824685679387074A638F1B
:10289000F60E824609669307F68B6397F600B71724
:1028A000002883C7C7AEF1EB831647020246814575
:1028B000EF6088879247D2404244B2445D8D610107
:1028C000828002C2014303A7C4B1B7770128024640
:1028D000831647020C4F03A547051AC4EF604886CC
:1028E0002243137785002A840946930613001DC7E7
:1028F0000543E39AC6FC0545EF5098FB83A7C4B196
:1029000037770128032547050246839647028C4FF7
:10291000EF6008832A840145EF5098F992473365A8
:10292000F400D2404244B2446101828003A7C4B1A2
:10293000B777012803A547050C4F2286EF60C882B0
:1029400003A7C4B1B7770128AA860C4F03A5470592
:10295000228636C2EF5058EE924603A7C4B1B3E7C1
:10296000A600144F3EC2E38C06F0B777012803A5FA
:102970004705A285EF50D8FDB1B781461306068CF6
:102980008145EF5078FA92475D8D61BFB7170028F7
:1029900083C7D7AE8146E38907F009BF0000000076
:1029A000511122C2377401280325440506C4EF5093
:1029B000B8E003254405EF50B8E803254405124468
:1029C000A24031016F5058E600000000B717002800
:1029D00083A7C7B137770128032547058C4F6F5070
:1029E000B8F90000B717002883A7C7B12A86CC4BD7
:1029F000B777012803A547056F5098D7000000005E
:102A0000511126C0B774012803A5440506C422C28B
:102A1000EF5098D52A8403A54405EF50F8D1A24081
:102A2000228512448244310182800000511126C067
:102A3000B774012803A5440506C422C2EF50D8D3B9
:102A40002A8403A54405EF5038CFA24022851244C2
:102A50008244310182800000511126C0B7740128E0
:102A600003A5440506C422C2EF5098D52A8403A5C5
:102A70004405EF5078CCA2402285124482443101B3
:102A800082800000B717002883A7C7B1619D8DE140
:102A900083C787021D8DFD47659D3345F50AB777CE
:102AA0000128B365B50A03A54705E59D6F5058ECAD
:102AB00083C797021D8DFD4793154560B3C5F50A81
:102AC0008147B3E5F50AB777012803A547056F509D
:102AD00038EA000037770128AA87032547052E86A4
:102AE000BE856F50F8CB000037770128AA870325F1
:102AF00047052E86BE856F50B8C90000377701287C
:102B0000AA8703254705B2862E86BE856F50D8D684
:102B100000000000B717002803A7C7B1211126C67F
:102B2000B7740128AA870C4F03A5440506CA22C81A
:102B30003EC03E8402C2EF5038E403A544058145FF
:102B4000EF5098D603A544052286DD45EF5058C4C2
:102B50008347410003A5440582453E863EC40144A7
:102B6000EF5098C3024603A54405A285EF5058C311
:102B7000824503A54405EF50B8C0824503A544052E
:102B8000EF5018C09376F50F1387460693578500CC
:102B900092421376F70FE99F13F7F70F9305470655
:102BA0008D431303800CE19D63867200636AC30248
:102BB0006368B30203A54405824522860504EF50ED
:102BC00038CD1377F40F9547659CE31DF7F8424421
:102BD00003A544058245D240B24461016F5058C1FB
:102BE000A2478507E59F3EC2A5B70000B777012839
:102BF0002A8703A54705AE87BA85931646601396C4
:102C000047606F5078C90000B777012803A54705D2
:102C10006F5098D800000000511122C2377401286B
:102C2000AA850325440506C4EF5018CE03254405A4
:102C30008545EF5078C71244A24031016F50588744
:102C400000000000211126C606CA22C82EC232C4C6
:102C5000AA8455E11145EF5038889D473774012803
:102C60000325440581460D470146A685EF5058C708
:102C7000AA8703254405A6853EC0EF5078B50325F5
:102C80004405A685EF5058B903254405EF50D8AB4D
:102C900003254405A685EF5038AF0325440581453B
:102CA000EF5098C00325440526868D45EF5058AF58
:102CB00003254405830541002686EF5078AD0325A2
:102CC0004405A685EF50D8A922470946A685088B5A
:102CD00003254405EF5058AC03254405A685EF5065
:102CE00038AA03254405EF50B8A5D2404244024516
:102CF000B244610182804145EF5008FEB147B9BF3F
:102D000000000000411122C43774012826C2AA84A1
:102D10000325440506C62EC023200520B717024808
:102D2000A5E03707080023A0E780EF5068E00325FF
:102D30004405A685EF5058B503254405A685EF50F8
:102D4000B8AC032544058545EF5018B60325440566
:102D5000EF50989EEF50D88A024603254405A68579
:102D6000EF5098A303254405A685EF50F8B9032535
:102D700044052244B240A685924441016F5058B99F
:102D80003707020023A0E780EF5088DA4DB7000034
:102D9000511126C0B774012822C22A8403A5440514
:102DA0002E86A28506C4EF50389F03A54405A28550
:102DB000EF5098B503A544058545EF50F8AE03A53F
:102DC0004405EF50789703A54405A285EF5058A31A
:102DD000AA8703A54405A2853E84EF5078B3EF503F
:102DE0003882A240418D1244824431018280000029
:102DF000411126C2B774012822C42A8403A54405C0
:102E00002E87B287A2853A8606C63EC0EF5058A0EC
:102E100082472A8703A544052286BA849395476092
:102E2000EF501897B2402244268592444101828097
:102E300000000000411122C43774012826C2AA8470
:102E400003254405AE87A68506C63EC0EF505891BF
:102E500082470946A685888B03254405EF50D89301
:102E60000145EF5068E73D468D452685EF5048EB1C
:102E700003254405D5E0B787F00023200520371748
:102E800002482320F780EF50A8CA0325440537974E
:102E9000F000130707E023200520B717024823A0FE
:102EA000E780EF50E8C803254405B787F000138793
:102EB00007D023200520B717024823A0E780EF5052
:102EC00028C703254405B787F000938707502320C0
:102ED0000520371702482320F780EF5068C50325E7
:102EE000440526868545EF50B88B03254405EF50F1
:102EF0003885032544058145EF50189B032544057B
:102F0000A685EF50F88C032544052244B240A685DF
:102F1000924441016F50D886B767F00013870720AD
:102F200023200520B717024823A0E780EF5048C0B0
:102F3000032544053777F000B71702482320052002
:102F400023A0E780EF50C8BE03254405B767F00013
:102F5000138707F023200520B717024823A0E78036
:102F6000EF5008BD03254405B767F000938707704D
:102F700023200520371702482320F780EF5048BB55
:102F8000B9BF0000B7770128AA8503A547056F5090
:102F900038870000B77701282A8303A54705BA8739
:102FA0003687B2862E869A856F50988F0000000073
:102FB0005111B717002806C483A7C7B101E983855B
:102FC0008702EF50E883A240310182808385970217
:102FD000EF500883A240310182800000377701283A
:102FE000AA870325470521113E8722C83EC02E84AB
:102FF000B287BA85094626C63EC2B68406CAEF50D5
:10300000A8FA41674117F98C9247138704013AC423
:103010003EC2B777012803A54705824526860904E5
:10302000EF50188DB777012803A547058245850421
:10303000EF5008FA1377F50F9247231FE4FE22475B
:10304000699D2181888F8907E394E4FCB777012883
:1030500003A5470582472320052089EF4244D2403B
:10306000B244B71702483707080023A0E780610180
:103070006F5008AC4244D240B244B71702483707F9
:10308000020023A0E78061016F5088AA37770128EA
:10309000AA87032547052E86BE856F5078850000D8
:1030A00001113773012822CC2A840325430526CA3F
:1030B000AE84A28506CE32C236C43AC63EC8EF50B0
:1030C0003885C2473773012822473EC09246B2472F
:1030D000032543052686A285EF501881F2406244FD
:1030E000D244056182800000B77701282A8303A5B6
:1030F0004705BA873687B2862E869A856F50C8FFF5
:1031000000000000511126C0B714002883A7C4B1E5
:1031100006C422C28C4F9DC937140028130404B77B
:10312000B777012803A54705EF5088FF83A7C4B1EF
:10313000AA84884FEF5048FE91C048C08547A240FE
:10314000A304F40012448244310182803714002821
:103150001304C4B7F1B7000011112E872AC2AA8543
:103160003A8506CC22CA26C83AC0EF50E89BB7146D
:1031700000282A87924683A7C4B1377401283A866B
:103180003AC60247032544052398D700BA85D8CB11
:10319000EF4098CA83A7C4B10246032544058C4F6B
:1031A000EF5008E903A7C4B1AA8702460C4F0325D4
:1031B00044053EC4EF5048E9A24782452A870325CB
:1031C0004405D98F3EC0EF50A8D883A7C4B18C4F17
:1031D000ADE5371700281307C7B71483B1E6924649
:1031E00005671307074A032544056380E60A9246EC
:1031F00009661307F68B6397E60037170028034725
:10320000C7AE3DEB839647023246EF50E8F1824766
:10321000B3E4A70003254405EF5088D9E2405244A7
:103220002685C24471018280034797004DFBEF5011
:1032300028BB83A7C4B18C4F5DB73717002813078D
:1032400007B7148381C6034797000DC383964702CF
:10325000032544053246EF50A8EE8247E24052442F
:10326000B3E4A7002685C24471018280EF5048B7BD
:1032700083A7C4B18C4FD9BF81461306068CEF508B
:10328000A8EA8247B3E4A70071B7371700280347BD
:10329000D7AE2DDB32468146EF5008E98247B3E4D2
:1032A000A7008DBF00000000B717002883A7C7B193
:1032B00037770128032547058C4F6F50E8EB000056
:1032C000B777012803A547056F5088C700000000A5
:1032D000B777012803A547056F5008C60000000016
:1032E000B7770128AA8503A547056F5068C9000074
:1032F000B777012803A547056F5008DB00000000E1
:10330000B777012803A547056F5088DF000000004C
:10331000B777012803A547056F5008C300000000D8
:10332000B777012803A547056F5008CB00000000C0
:1033300037770128AA87032547052E86BE856F505B
:10334000A8C50000B7770128AA8503A547056F50D7
:1033500028C10000B7770128AA8503A547056F504B
:1033600028DB0000B7770128AA8503A547056F5021
:10337000A8D90000B777012803A5470589456F50F4
:10338000A8DF0000B717002803A7C7B18567B77685
:103390000128031607019387074A03A546050C4F2A
:1033A0006305F60289679386F78B6317D600B71615
:1033B000002883C6C6AE89E6831647026F50C8D67A
:1033C00081461386078C6F5028D6B717002883C70D
:1033D000D7AEFDD381466F5028D50000B71700281F
:1033E00083A7C7B1377701280325470523AC07001A
:1033F0006F5088BF00000000411126C2B71400289A
:1034000083A7C4B122C437740128CC4B03254405DB
:1034100006C6EF50E8B303254405EF4078BF032507
:1034200044058145EF4058BF03254405EF40D8BF10
:1034300003254405EF40D8BE83A7C4B10325440546
:10344000CC4BEF5068C283A7C4B12A87032544053B
:1034500003960701CC4B3AC0EF40189E83A7C4B136
:1034600003254405D04B8C4FEF5008BDB7170028FB
:103470009387C7B702479483B364A70081C683C705
:10348000970099CFEF5048A1AA8703254405DD8C0A
:10349000EF5008B2B2402244268592444101828016
:1034A000EF500894C5B70000411126C2B714002898
:1034B00003A7C4B122C4377401284C4B032544052B
:1034C00006C6EF50E8A803A7C4B1032544050C4F76
:1034D000EF4098B3032544058945EF40F8B3032531
:1034E0004405EF4078B403254405EF4078B3032545
:1034F0004405EF50E8B703A7C4B103254405504B7A
:103500000C4FEF5068C503A7C4B1AA870325440533
:10351000031607014C4B3EC0EF40189237170028A6
:10352000130707B7148381C6034797001DC383A7FA
:10353000C4B10325440583964702039607018C4FC7
:10354000EF5008C08247B240224492445D8D410151
:103550008280EF50E888E1BF00000000B7770128C3
:1035600003A547056F50C8BC00000000411126C2EA
:10357000B7740128AA8503A5440506C622C42EC037
:10358000EF5088A482452A8403A54405EF50C8A8BB
:1035900003A54405EF50C89AB240228522449244C4
:1035A0004101828000000000411126C2B774012849
:1035B000AA8503A5440506C622C42EC0EF5048A024
:1035C00082452A8403A54405EF5008A403A54405B9
:1035D000EF508896B2402285224492444101828075
:1035E00000000000411122C43774012826C2AA84B9
:1035F0000325440506C62EC0EF50089DAA87024643
:1036000003254405A6853EC0EF5088A08247C98F98
:103610003EC003254405ADE8B7140248B787F00063
:103620002320052023A0F480EF4098D003254405F3
:103630003797F000130707E02320052023A0E4803C
:10364000EF4018CF03254405B787F000138707D054
:103650002320052023A0E480EF4098CD03254405D6
:10366000B787F000938707502320052023A0F4801C
:10367000EF4018CC03254405EF50888CB24022441B
:103680000245924441018280B767F000B7140248B6
:10369000138707202320052023A0E480EF4058C98A
:1036A000032544053777F0002320052023A0E4807C
:1036B000EF4018C803254405B767F000138707F0EB
:1036C0002320052023A0E480EF4098C6032544056D
:1036D000B767F000938707702320052023A0F480AC
:1036E000EF4018C541BF0000411126C2B774012840
:1036F000AA8503A5440506C622C42EC0EF50488CF7
:1037000082452A8403A54405EF50888FAA8703A524
:1037100044055D8CEF504882B24022852244924499
:103720004101828000000000B777012883A547058A
:103730006F50088F00000000B717002883A7C7B19B
:10374000AA8603960701CC4BB777012803A5470546
:103750006F4018BF000000006F4008EF000000003D
:103760006F4008EF000000006F4088ED000000008F
:103770006F4098BD000000006F4098BD0000000041
:103780006F40188B000000006F40188C0000000094
:103790006F40988A000000006F40988A0000000087
:1037A0006F50088C000000006F50888A00000000F5
:1037B0006F50888A00000000B717F50037170248DD
:1037C000938707802320F7806F4098B600000000A1
:1037D000B707F50037170248938707702320F78053
:1037E0006F4018B5000000008DE93767F40013073B
:1037F00007D0B7070020BE964206B707FF0F7D8EA1
:1038000093F7F60FB71502483696BA9723A0F580BE
:10381000218223A0C5806F40B8B13737F400130769
:1038200007F0C1BF00000000511122C206C43714C6
:103830000248A9E13767F40013040433130707D0E3
:103840004206B707FF0FF18F37060010B716024880
:10385000B29723A0E680A18323A0F680EF4058AD65
:1038600013050002EF40D8BF0840A2401244699DF2
:10387000310182803737F40013040431130707F055
:10388000C1B70000111122CA26C806CC2E84B2840A
:1038900036C63AC43EC22AC0EF4098FE924722473D
:1038A000B246A285B397E700A98F5244FD8EE2404D
:1038B000A98E26860245C2447101E99E6F50488E4A
:1038C000000000003111B7C7F0001383073006C8AD
:1038D0003717024822C626C4232067802A84AE8474
:1038E00032C236C0EF40D8A42285A685EF4058FEEC
:1038F00082461246A6852285699EEF40F8FC228505
:10390000EF4018A3B7C7F000938607603717024847
:103910002320D7809387075022852320F780EF400C
:1039200038A1294411A095E4B717024883A7070BD3
:103930007D1413050002619C93D4F748EF4058B200
:103940007DF0C240324413C514000E05A24451015B
:103950008280C2403244A24401455101828000006D
:103960003111B717F500138307F006C8371702485F
:1039700022C626C4232067802A84AE8432C236C081
:10398000EF40189B2285A685EF4098F382461246A9
:10399000A6852285699EEF4038F22285EF4058992E
:1039A000B717F50093860720371702482320D780E2
:1039B0009387071022852320F780EF4078972944CA
:1039C00011A095E4B717024883A7070B7D141305D0
:1039D0000002619C93D46748EF4098A87DF0C240F4
:1039E000324413C514000E05A24451018280C24026
:1039F0003244A2440145510182800000B7170248B9
:103A000099E53707820023A0E7806F407892370757
:103A1000810023A0E7806F40B8910000B787F200D3
:103A200037170248938717102320F7806F4058906C
:103A300000000000B787F20037170248938707108D
:103A40002320F7806F40D88E00000000511106C47B
:103A50000947AA87638BE504636BB7028DEDB7173F
:103A6000024837078C0023A0E780EF40788CB71717
:103A7000002883A707B2B3A7F720139547001D8D31
:103A80004D15EF40F89D0145A240310182800D4760
:103A90000945E39BE5FE37170248B7068700232058
:103AA000D7803E85EF40D888F9BF37170248B70660
:103AB00085002320D7803E85EF409887E9B7000036
:103AC000B707F00037170248938607302320D780C6
:103AD000938707102320F780B717F000938707908C
:103AE0002320F7806F40D88400000000B707F00063
:103AF00037170248938607402320D78093870720F3
:103B00002320F780B717F000938707A02320F780C2
:103B10006F40188200000000B727F00037170248F6
:103B2000938607502320D780938607102320D780C1
:103B3000938707302320F7806F4088FF0000000044
:103B4000B727F00037170248938607602320D780F5
:103B5000938607202320D780938707402320F78070
:103B60006F4008FD00000000511122C206C42A84E3
:103B7000EF4098BE22851244A24031016F40D8BC6C
:103B800000000000511122C206C42A84EF40D8C4AC
:103B900022851244A24031016F4018C60000000087
:103BA000511106C4B717024837078D0023A0E780DC
:103BB000EF4008F8B717002883A747B2B3A7F7204C
:103BC000139547001D8D4D15EF409889A240014582
:103BD00031018280000000004111B717002806C69D
:103BE00022C426C283A7C7B12A87B5ED838787027F
:103BF000634FF6063304F640FD47659C3344F40AF0
:103C0000B7E7F300938707903E94B71402483AC091
:103C1000B7078D003A8523A0F480EF4068F1B7170D
:103C2000002883A747B2B3A7F720139547001D8D3F
:103C30004D15EF40F882B757F100938707B023A0E6
:103C4000F4800247B7E7F300938717B023A0F4800E
:103C500023A084803A85EF40A8EDB24022449244EC
:103C600001454101828083879702E355F6F837E4E6
:103C7000F3001304049051BF00000000511106C46A
:103C800022C226C0B7078E00B714024823A0F480D2
:103C90002A84EF40E8E9B717002883A787B2B3A7C3
:103CA000F720139547001D8D4D15EF4068FBB707B2
:103CB000880023A0F480B707860023A0F480B7A76C
:103CC000F000938707D0228523A0F480EF4048E6D8
:103CD000A24012448244014531018280000000006C
:103CE0005111B7F7F00006C422C226C037140248AB
:103CF000138707C02320E480138707A0B7E7F000ED
:103D00002320E480138707402320E4809387072043
:103D10002320F480AA84EF40A8E1B7D7F0001387EE
:103D200007802320E480938707A026852320F48042
:103D3000EF4008E0B707860026852320F480EF4097
:103D400028DFB7075E002320F48037076000B7C77D
:103D5000F0002320E480138707602320E48093870A
:103D6000074026852320F480EF4088DCA2401244DF
:103D7000824401453101828000000000511106C4D7
:103D800022C226C0B7078E00B714024823A0F480D1
:103D90002A84EF40E8D9B717002883A787B2B3A7D2
:103DA000F720139547001D8D4D15EF4068EBB707C1
:103DB000880023A0F480B7078600228523A0F48022
:103DC000EF4008D7A240124482440145310182806D
:103DD00000000000511106C4B717024837078E00D3
:103DE00023A0E780EF40C8D4B717002883A787B285
:103DF000B3A7F720139547001D8D4D15EF4048E6FA
:103E0000A24001453101828000000000511106C42A
:103E100022C2B7078900371402482320F480EF40FC
:103E200028D1B717002883A7C7B2B3A7F7201395E7
:103E300047001D8D4D15EF40A8E203250480A240E8
:103E40001244699D3101828000000000511106C4B6
:103E500022C2B7078A00371402482320F480EF40BB
:103E600028CDB717002883A707B3B3A7F72013956A
:103E700047001D8D4D15EF40A8DE03250480A240AC
:103E80001244310182800000B7E7F300371702487F
:103E9000938617B0938707902320D780BE95232061
:103EA000B7806F40E8C800009E0626065111B29602
:103EB000BE96120706C422C2BA9685E5B717024815
:103EC0003707070023A0E78037070C00BA9623A026
:103ED000D7800144EF40C8C5A24022851244310179
:103EE0008280FD1585471144E3E6B7FEB717024807
:103EF000416723A0E78037070600BA9623A0D78042
:103F00000144C9BF00000000B7D7F30037170248CB
:103F1000938717302320F780B797F400938707C063
:103F2000BE952320B7806F40A8C00000B7D7F3002C
:103F300037170248938717302320F780B797F4008C
:103F4000938707E0BE952320B7806F4068BE0000CE
:103F500037170248B7D7F30099C593870730232056
:103F6000F7806F40E8BC938717302320F7806F40BD
:103F700028BC000037170248B7E7F30099C59387BC
:103F800007B02320F7806F40A8BA938717B023208B
:103F9000F7806F40E8B90000B707F4003717024810
:103FA000938707702320F780B70725002320F78029
:103FB0006F4008B800000000B707F4003717024848
:103FC000938707702320F780B70726002320F78008
:103FD0006F4008B600000000C167FD17A206FD8E05
:103FE000619EB7072A003E96B296B717024823A0F3
:103FF000D7806F40E8B30000511122C226C006C42A
:1040000037170248B70729002320F7809385170048
:104010002320B780938527002320B780938537001E
:104020002320B78091072320F7803284B684EF40A5
:1040300028B02286A68613055400B7150248010051
:1040400083A705800506850613D78700A30FE6FE24
:10405000A38FF6FEE316A6FEA2401244824431016D
:10406000828000009C811882B7062700A20736973D
:10407000BA97371702482320F780B712024805473E
:104080001543B387E5009C83B306E6009482A2073C
:104090000507D58F23A0F280E31567FE6F4048A97E
:1040A00000000000B7052800B71702482E96A206A8
:1040B00023A0C780BA9623A0D7806F4068A70000CE
:1040C00099ED37170248B7077B002320F780B79791
:1040D000F000938707D02320F7806F4068A5FD1577
:1040E0008547E3ECB7FE37170248B707790023206E
:1040F000F780B777F000938707F02320F7806F40B1
:1041000028A300008DED37170248B7077C00232055
:10411000F780B797F000938707E02320F780B71761
:10412000F00037170248938707D02320F780B7376E
:10413000F000938707702320F7806F40689FFD157C
:104140008547E3EEB7FCB717024837077A0023A08C
:10415000E7803777F00023A0E780D1B700000000A8
:10416000B777F200938707303E96B717024823A02F
:10417000C7806F40E89B00005111B777F20022C260
:1041800006C437140248938707402320F480EF4089
:10419000289A03250480A2401244619D3101828047
:1041A00000000000B797F400938707403E96B717CA
:1041B000024823A0C7806F40A89700008DE1B70791
:1041C0007F003E96B717024823A0C780511106C44E
:1041D000EF400896A24081473E8531018280FD155F
:1041E00005479147636AB700B7077D003E96B7174A
:1041F000024823A0C780D9BF3E858280000000000E
:10420000511106C422C28DEDB7170248370780004E
:1042100023A0E7800144B717F000371702489387BF
:1042200007D02320F780B737F0009387077023204B
:10423000F780EF40E88FA24022851244310182804E
:10424000FD1585471144E3E8B7FCB7170248370767
:104250007E0023A0E78001447DBF00001C86C16270
:104260009882A207FD12B7053300B3F75700AE9747
:104270007111BA9722C0371702482320F78093059F
:1042800026001383260013070601B7130248010016
:104290009C85034403008905A207B3F75700A29742
:1042A00023A0F3800903E315B7FE0100010001001C
:1042B00001000100010001000100010001000100F6
:1042C00001000100010001000100010001000100E6
:1042D000010001000100010001004163C106130655
:1042E00006027D13B71202481C878C820907A207B9
:1042F000B3F76700AE9723A0F2808906E316E6FEC7
:10430000024411016F40C88291E9B7070C003E9644
:10431000B717024823A0C7806F408881B7070600FF
:104320003E96B717024823A0C7806F406880000000
:10433000B70734003E96C167A206FD17B7150248BD
:10434000FD8E619F23A0C580BA9623A0D5806F30D3
:1043500038FE0000C167FD17A206FD8EB7073600C4
:10436000BE96B727F40037170248619E938707B0BF
:104370002320F780B2962320D7806F3078FB00008F
:10438000B727F40037170248938707B02320F78038
:10439000B70732002320F7806F3098F90000000043
:1043A00037A7F400B71702481307078023A0E78058
:1043B0003707420023A0E7803707440023A0E780A7
:1043C0003707460023A0E7806F3098F60000000012
:1043D000511106C422C226C089476389F50E2A847A
:1043E00063EEB704B5C16308061201009307F6FF38
:1043F00005471145636FF702B7076900B714024814
:1044000023A0F4802285EF30B8F2B717002883A7E5
:1044100007B4B3A7F720139547001D8D4D15EF4046
:10442000288403A50480B70700FF85073E95133550
:104430001500A24012448244310182808D47094513
:10444000E399F5FE45F6C1A8B746F100B714024856
:104450009387069023A0F480EF3098ED371700285B
:10446000130707B27C43B3A7F720139547001D8DB0
:104470004D15EF30F8FEB7076B009907B746F1000E
:1044800023A0F48093860680228523A0D480EF3079
:1044900038EAB7170028138707B283554701056527
:1044A000228613050580EF30B8E7B70700FF8507C0
:1044B000A24012443E95B737F1009387077023A0BE
:1044C000F48013351500824431018280371402488C
:1044D000B70799002320F480B70765002320F480F4
:1044E000EF3018E5B717002883A787B3B3A7F720E5
:1044F000139547001D8D4D15EF3098F60325048068
:10450000A2401244B70700FF85073E958244133549
:10451000150031018280B7076700B714024823A055
:10452000F4802285EF30D8E0B717002883A7C7B3FF
:10453000CDB50000B717024837076C0023A0E7800D
:104540003707660023A0E7803707680023A0E780CD
:1045500037076A0023A0E7806F3098DD0000000075
:10456000511122C206C426C089472A846383F50CF0
:1045700063E4B706ADE5630B060E1307F6FF854649
:10458000914763EBE608B71702483707730023A08B
:10459000E780B7140028EF30B8D9938404B29C5C4C
:1045A000B3A7F720139547001D8D4D15EF3058EB3D
:1045B00083D5C4032286056513050580EF3058D6E0
:1045C000B70700FFA24012448507AA9793B71700C8
:1045D00082443E85310182808D476395F504B7079B
:1045E0005300B714024823A0F4802285EF3058D43A
:1045F000B717002883A787B4B3A7F7201395470000
:104600001D8D4D15EF30D8E583A70480370700FFD7
:104610000507BA9793B71700A240124482443E851B
:1046200031018280A2401244894782443E85310193
:10463000828005C69307F6FF05476372F706B70742
:104640004F00B714024823A0F4802285EF3058CEE3
:10465000B717002883A747B445B7B71702483707ED
:10466000750023A0E780EF30B8CCD1BFB717024860
:104670003707710023A0E780B7140028EF3058CB2C
:10468000938404B29C5CB3A7F720139547001D8D5B
:104690004D15EF30F8DC83D58403228629BFB71788
:1046A00002483707770023A0E780EF3078C841BF82
:1046B00000000000211122C826C606CA2A84AE8442
:1046C00032C2EF40E8AC09472AC06380E406636267
:1046D0009704B9E037A7F400B716024813072780FC
:1046E00023A0E68037076F0023A0E6802285EF3005
:1046F00038C401471246A68522853AC4EF40C8A6B1
:1047000022478247D2404244598DB2445D8D6101B7
:1047100082800D476399E40037170248B7064500C9
:104720002320D780E1B70947F1B737170248B7060A
:1047300043002320D7805DBF00000000B717024868
:104740003707720023A0E7803707740023A0E780B3
:104750003707760023A0E7803707780023A0E7809B
:104760003707540023A0E7806F3098BC000000009A
:10477000511106C422C22A84EF40889E2285EF4050
:10478000288622851244A24031016F40E89F000034
:10479000B9E15111B707F50006C422C23717024824
:1047A000938707102320F7802A84EF3078B8B71753
:1047B000002883D507B60565228613050580EF30EE
:1047C00038B6A2401244B70700FF85073E9513355F
:1047D00015003101828009458280000081C5814732
:1047E0003E858280511106C411CA7D160547914746
:1047F0006372C702A2403E8531018280B737F00064
:10480000938707E0371702482320F780EF3058B22C
:104810008147CDB7B737F000938707D037170248E5
:104820002320F780EF30D8B08147E9B700000000BF
:1048300051113717F50006C422C226C037140248AA
:10484000930707A02320F480AA84EF3078AEB7073F
:10485000F5009387072026852320F480EF3058AD9C
:10486000B737F000938607202320D4802320F480DC
:104870003717F500938707E02320F480930707207C
:104880002320F4802320E4801244A2402685824421
:1048900031016F30F8A90000511106C422C226C0B0
:1048A0008947638FF5008D47638CF512054789476B
:1048B0006388E510A240124482443E853101828023
:1048C0002A84630906147D1605479147E364C7FEF1
:1048D00037D3F000B7140248930703C023A0F48035
:1048E0009307034023A0F480EF3098A437D3F0005F
:1048F00093060310856223A06480138502F3228748
:1049000023A0D4801D66B1469D45EF30F89FB7E7E0
:10491000F0001387073023A0E4801387075023A0FB
:10492000E480138707B023A0E4801387079037D370
:10493000F00023A0E480138707D01305037085627D
:1049400023A0E4808D46130680038D45228723A093
:10495000A480138502F3EF30389B2285EF30589DF9
:1049600037170028032707B53327E720131547001B
:10497000198D4D15EF30D8AE37D3F0001303033047
:10498000B7E7F00023A06480938707F023A0F480AA
:10499000B7C7F0009387077023A0F4802285EF301B
:1049A00038998562138502F22287A14613060070AA
:1049B0008D45EF3078952285EF3098978147DDBDA2
:1049C000630406127D169147E3E6C5EEB717024869
:1049D0003707590023A0E780EF3098958147D9BD6C
:1049E00005C27D1605479147E366C7ECB717024835
:1049F00037075B0023A0E780EF30989381475DBDC8
:104A0000B71702483707570023A0E780EF305892C6
:104A100081474DB5B7D7F000B7140248138707C0D8
:104A200023A0E4801387074023A0E480EF30589050
:104A3000B7D7F00085629386071023A0F480138611
:104A400002E0138502F3228723A0D4809D45A5466A
:104A5000EF30988B37E3F0001307031023A0E480B6
:104A60001307035023A0E480130703B023A0E480BE
:104A700013070390B7D7F00023A0E480130703D0F7
:104A800013850770856223A0E4808D46130680039A
:104A90008D45228723A0A480138502F3EF30D886AA
:104AA0002285EF30F888371700280327C7B433274B
:104AB000E72013154700198D4D15EF30789AB7D7B9
:104AC000F0001387073037E3F00023A0E4801303DE
:104AD00003F09387079023A0648023A0F4802285AD
:104AE000EF3018858147F9B3B717024837075500EB
:104AF00023A0E780EF30D88381476DBB0000000022
:104B0000411106C622C426C281CD9387F5FF09470D
:104B1000636CF7022244B240924441016F30D8E303
:104B200032842AC0EF3058E10247AA8429C0130614
:104B3000F4FF854763F1C702B24022449364450005
:104B400026859244410182808944B24022442685D0
:104B5000924441018280B737F000B716024893872C
:104B600007D023A0F6803A85EF3088FCF9BFB7372D
:104B7000F000B7160248938707E03A8523A0F68035
:104B8000EF3008FBB24022442685924441018280E6
:104B900000000000511126C006C422C2AA84B5C973
:104BA000FD15054791476378B700A240124482443F
:104BB0003E8531018280B7F7F00037140248138731
:104BC00007A02320E480138707B0B7E7F000232075
:104BD000E480138707202320E48093870730232075
:104BE000F480EF30E8F4B7D7F000938707A02320D4
:104BF000F480B7C7F000938707702320F4802685E0
:104C0000EF3008F38147A240124482443E853101CF
:104C10008280B7F7F00037140248138707C02320BB
:104C2000E48013870790B7E7F0002320E480138720
:104C300007402320E480938707102320F480EF307F
:104C400028EFB7D7F000138707802320E4809387ED
:104C500007902320F4802685EF3088ED814765B7E3
:104C600000000000B71702483707560023A0E7806E
:104C700037075A0023A0E7803707580023A0E780B2
:104C800037075C0023A0E78037075E0023A0E7809A
:104C9000B706600037D7F00023A0D780930607A09F
:104CA00023A0D7809306078023A0D780B7E6F00023
:104CB00023A0D7801307073023A0E7806F3048E791
:104CC00000000000511122C206C42A84EF3058C6E9
:104CD00022851244A24031016F3018C70000000045
:104CE0003111B746F10006C81387069022C626C4C4
:104CF000371402482320E480B71400282EC22AC0AB
:104D0000938404B2EF30C8E2F8403327E72013154C
:104D10004700198D4D15EF30A8F437076B00024599
:104D20001907B746F100938606802320E4802320EC
:104D3000D480EF30E8DF024503270480EF3048DFFE
:104D4000B8443327E72013154700198D4D15EF3070
:104D500028F137A7F4000245130727802320E480B9
:104D600037076F002320E480EF3088DCB756F0006F
:104D7000138706E02320E480138706F02320E480D5
:104D8000938606103737F1002320D480930607E07E
:104D90002320D4800245930607F02320D4801307F4
:104DA00007902320E480EF30A8D83707970092457A
:104DB0002320E480370798002320E480A5C9914789
:104DC000FD1505473EC26372B708B707970037174E
:104DD0000248938707602320F780B70798009387DE
:104DE00007302320F7800245B707F50093870710A7
:104DF0002320F780EF30C8D3FC44B3A7F7201395E6
:104E000047001D8D4D15EF30A8E5371702480325E3
:104E10000780B70700FF8507C24032443E9592479E
:104E200013351500A2445D8D51018280024537077C
:104E3000710005072320E480EF3088CF02458327E7
:104E40000480EF30E8CE02C249B70245370773004D
:104E5000CDB70000B746F100B71702483737F10069
:104E60001386068023A0C7801306076023A0C7808F
:104E70003726F100130606A023A0C780130607807B
:104E800023A0C7801386064023A0C780938606A070
:104E90003726F00023A0D7809306068023A0D78072
:104EA000B715F0001306069023A0C780938605E08F
:104EB00023A0D780B736F00023A0B78013860680E2
:104EC00023A0C780938606A023A0D780B756F00002
:104ED00023A0D7801386062023A0C780938606D000
:104EE00037A6F00023A0D780930606A023A0D78082
:104EF000130606D023A0C780930607E023A0D7801F
:104F000023A0E780130707A023A0E78037076200EC
:104F100023A0E7806F30C8C1000000003797F4007D
:104F20009377150013070760BA97371702482320B5
:104F3000F7802E856F30C8BF00000000CD4763E9C1
:104F4000A700B7170028938707B23345F5200CC197
:104F500082800000130181B9FD72232E9144232227
:104F600011462320814605671691930635001307E5
:104F700037802EC0AA8413D326006374D70013038E
:104F800000200564130404457D77B307E40078002E
:104F90003E9722868145130507BB1AC43AC2EF30FB
:104FA000332322437800B307E4000246338487406A
:104FB0009A85A2861145EF3038922285EF3048B7A6
:104FC00037450F0013050524B3B5A4023796D00367
:104FD00081463385A402EF10731693074006B3771A
:104FE000F50AB3A7F720139547001D8D4D15EF3037
:104FF00028C78562169183204146032401468324F5
:10500000C14513018146828000000000130101BAEE
:10501000FD720566232E1144232C8144232A9144DA
:10502000130606451691FD773307F6005C00BA9724
:1050300058002A843EC08145138507BBB307E600AC
:10504000B384C740EF30D318A68622868145014538
:10505000EF3098882685EF30A8AD856216918320C1
:10506000C1450324814583244145130101468280C3
:1050700000000000130141DE232C1120232A81208F
:10508000232891202EC22AC0A1CDAE8413068020F1
:1050900081452800EF30D313B7170828138447A59C
:1050A0009384440D1080824528000A06EF3048FDA5
:1050B000B717082888C00504938787AD9104E313C8
:1050C000F4FE1247832081210324412193074008E5
:1050D0002328F70C8324012101451301C12182807B
:1050E00083208121032441218324012105451301CB
:1050F000C121828011113717002806CC22CA26C888
:105100000327C7B16313050E104F37740128AA8710
:1051100003254405630F06183EC05C4B3EC6EDE315
:105120000567AA86130607F389451545EF30C89E23
:1051300037F6F000B71602481306063023A0C680E3
:10514000AA841316452903254405056723A8C6F23A
:105150009307070B3EC402C2EF30889D0325440528
:10516000B71602489394444923A896F2EF30489C1E
:10517000824701003706A100032544053EC0B3164F
:10518000F02837170248B2962320D780EF30489A8C
:1051900003254405B7F4F0009386045037170248FE
:1051A0002320D780EF30C8980325440537170248DD
:1051B0009384046023209780EF30889783264405EA
:1051C000224689451545EF3028958247BD4613553F
:1051D000354913871700638F071E92476303F50055
:1051E0003AC66306D70ABA8771B75C4B05470145D3
:1051F000FD176379F714E2405244C2447101828082
:10520000B7F4F00037170248938704D02320F780C3
:10521000938704102320F780EF30889103254405FD
:1052200093870420371702482320F780EF304890F7
:1052300003254405938704F0371702482320F7809D
:10524000EF30088F03254405371702482320978045
:10525000EF30088E8326440505661306060B894544
:105260001545EF30688BAA8703254405938404E035
:10527000371702482320978013D44701EF30488B1B
:10528000E240137514005244C24471018280032528
:105290004405B7F7F00093870740371702482320EB
:1052A000F780EF30E888B2471245B1D713F5F70F12
:1052B00099B7B714F50037170248938704D0232015
:1052C000F780938704302320F780EF30688603252A
:1052D000440593870440371702482320F780EF30B6
:1052E0002885032544059387045037170248232057
:1052F000F780EF30E8830325440593870460371770
:1053000002482320F780EF30A882832644050566F3
:105310001306060B89451545EF300880AA8703253B
:105320004405938404E0371702482320978013D460
:105330007700EF20F8FFE240137574005244C24436
:10534000710182803733F000B7740128930603B0EF
:105350003714024803A54405B777F2002320D48010
:10536000938617D02320D480EF2098FC03A5440512
:10537000B777F200938707D02320F480EF2058FB03
:1053800003A5440505472320E4D0EF2078FA03A5C0
:105390004405232004D0EF20B8F983A64405056610
:1053A0001306060B89451545EF2018F7AA873733F2
:1053B000F00003A54405130303C02320648013D425
:1053C0000701EF20F8F6E240137574005244C2441E
:1053D000710182802AC2BA8771BB0000630605543E
:1053E000130181D38567138687AE232E912AAE845D
:1053F00081452322112C2320812C2A84EF30435D08
:105400000D4718C013068020814544C04819EF306D
:10541000235C1306801EA6854819EF3068C62A87CC
:1054200093563500937777001306C01EA6853EC6B7
:10543000481993F7F60F3EC8EF3088C42A87935671
:1054400085009377F7011306001FA6853ECA481909
:1054500093F7F6073ECCEF30A8C22A879377F70F71
:1054600013060020A68548193ECEEF3068C1856737
:10547000FD172A877D8F1306C020A68548193AC2DA
:10548000EF3008C02A879377170013068015A6858A
:1054900048193ED0EF30C8BE2A879377F70F13061E
:1054A0008005A68548193ED2EF3088BD8567938672
:1054B000F7FF2A87758F1306C005A68548193AD4C9
:1054C000EF3008BC935685001357C50093F7F600DC
:1054D00013068002A6853ED64819937737003ED83A
:1054E000EF3008BA935645001357950093F7F6012D
:1054F00013060003A6853EDA48199377F7013EDCD0
:10550000EF3008B8935645001357950093F7F6010E
:1055100013068003A6853EDE48199377F700BEC0C8
:10552000EF3008B69356450093F7F60113579500F0
:105530001306C008A685BEC248199377F700BEC4FB
:10554000EF3008B42A879377F73F13068008A685C3
:105550004819BEC6EF30C8B22A8793777700130682
:10556000C010A6854819BEC8EF3088B11357350062
:105570009377F70313068004A6854819BECAEF3057
:1055800028B0135795009377F70313060005A685F7
:105590004819BECCEF30C8AE135795009377F7018A
:1055A00013064012A6854819BECEEF3068AD2A8793
:1055B0009377170013060017A6854819BED0EF3061
:1055C00028AC85672A87FD17F98F1306C00FA685BB
:1055D0004819BED2EF30C8AAAA8713F717001306DE
:1055E0000002A685BAD4481913D7174893D727487D
:1055F000BAD6BED8EF30C8A82146A685AA874819D2
:105600003EC0EF30E8A78247B7060002938606E067
:1056100013577500A607F58F1377F71FD98F01452C
:105620003EC0EF3068C62A870545BADEEF30C8C5F0
:105630002A8726853AC1EF3028AE37870300130743
:10564000E782B335E50237460F001306062481468C
:10565000599DEF10A32E2A8713064022A6854819CC
:10566000BADAEF30E8A19377F5073EC4639F0422CE
:1056700037170248B766F4002320D7804819EF2077
:1056800038CB3717024883270780B716F300938675
:105690000660BEDC2320D7804819EF2078C9371771
:1056A000024803270780058B6312072881473EC9FC
:1056B000914741473ED195473AC721468146954398
:1056C0003ECF8247B742420F914533B757022ECDA6
:1056D000B38257029315D700935737013ED593D223
:1056E0003201B3E2550033B7720216D3B3857702A5
:1056F000B3837202B387E500BE853EC31E851EC517
:10570000EF10C323AA432E833A469A45CA462A87F6
:105710001E853ACB1AC3EF1063221A435A479A5296
:10572000AA572AC52EC79143A2463796D0030145F2
:10573000B3867602B305D602B336D60212462EC31E
:1057400036CB31C2B3E6F2009DCEB7261D00370539
:1057500000A2938646A9B386D3021AD93AD73ED57A
:1057600016D3B3357502B380C702B695B336560269
:1057700033057502869633065602EF10231C4A53F2
:105780003A57AA579A522322A408665582403706F0
:10579000040008C43245B386C000B60648C40255AA
:1057A000B582B795D00308C84245918E3396B602AC
:1057B00048C8125593D3B000232E740608CC325536
:1057C00048CC4255CD9E9315D60008D022554D8623
:1057D00048D0525508D47255CD82CD8E48D4164546
:1057E000A64508D862554CDCB64548D8064508DCC5
:1057F0002CC0C6457A45232C14066CC0D6452CC453
:10580000E6456CC4F6452CC8D2456CC8E2452CCCA4
:10581000F2456CCC86552CD092456CD096552CD444
:10582000A6556CD4B6552CD8C6556CD8D655232061
:10583000B408EA452324B4082326A4080A552322E1
:10584000F40AAA472328A40876552324F40ABA4761
:10585000232AA4080A452326F40A9A47232CA408DD
:1058600022452320F40CDA47232EA408A285232006
:10587000540A2328E40A232A640A232CD40A232E58
:10588000C40A2322F40C2324040C2326040C23280A
:10589000040C2685EF30C89C8320412C0324012C66
:1058A0008324C12B1301812C82803737F4003716F3
:1058B0000248130707202320E6804819EF2058A745
:1058C0008247B726A1073716024833B7D702032607
:1058D000068085450143B2DC3E86B386D7021315A8
:1058E000D7004D83CD82C98E63FEE504824789438C
:1058F00013D3F7011396170089473ECD3797D0038E
:10590000B336C70285473ED13ECF33036702519F6E
:1059100036939316D300135333019A871AC74D83D6
:10592000558FBA823AC509B50545828081473EC97F
:10593000894721473ED18D473AC7114681468D435D
:105940003ECF41B36318B700371710241307F70F82
:10595000E36ED7F8854785433ECD4DB70000000084
:10596000311126C4B714002883A7C4B106C822C6C3
:10597000984F2EC2AA87B71602486314071237172A
:10598000F5001307072023A0E680377401280325BC
:1059900044053EC0EF20D89903A7C4B18247184FF1
:1059A00063150712B71602483717F50023A0E680E3
:1059B000130707F023A0E68003254405E99F3EC0B6
:1059C000EF20189783A7C4B1032544058C4FEDE160
:1059D000EF2018EF83A7C4B1032544050246839640
:1059E00047028C4FEF2058ED03254405EF205894D3
:1059F00083A7C4B1832644059245904F5D45EF20AF
:105A0000B8ED83A7C4B19C4FC1E3B717F5003717B2
:105A10000248938607202320D780938707102320EE
:105A2000F78003254405A9473EC0EF2078908247C0
:105A30000DA037170248130500020324070B3EC0D0
:105A4000EF2018A2824713546448FD17E19F8DC7C9
:105A500051E803A7C4B1184F69DF3717024813058F
:105A600000020324070B3EC0EF20989F8247135487
:105A70005448FD17E19FE9FFC2401345140032442A
:105A8000A2440E0551018280B7C7F00037170248C3
:105A9000938607602320D780938707502320F780C1
:105AA00049B737C7F0001307076023A0E680F1BDB0
:105AB000EF2018E283A7C4B103254405024683966C
:105AC00047028C4FEF2058E005B737C7F000B716F4
:105AD00002481306074023A0C6801307073023A0FF
:105AE000E680D9BDC2403244A244014551018280C2
:105AF00000000000B717002883A7C7B19C4F81EBB7
:105B0000B717024803A5070B135565488280B717DE
:105B1000024803A5070B135555488280000000007A
:105B2000411122C426C22A84AE8432C006C6EF20A8
:105B300028B7B777012883A68710B7070212938783
:105B4000070813575400A2973347D7201313340084
:105B50000C4B024694528A07331480288DC083224E
:105B600007008CC3B387660084C3D0C3336454007A
:105B700000C32244B240924441016F20E8B20C437A
:105B800023A00700B387660023A00700D0C333F427
:105B9000854000C32244B240924441016F20C8B006
:105BA00000000000B777012883A78710885B8280F8
:105BB00000000000B7170828938787AD711122C035
:105BC000804B83A3070083A2470003A38700D0472D
:105BD000938701B2C0CF02441307F50198C323A6EF
:105BE000770023A8570023AA670090CF8CC713859E
:105BF00001B211016F20C8AB0000000085471C8A6C
:105C0000B757002883A707BB38819C4B6303F70075
:105C1000828023A0051E82800000000088C254817B
:105C200014C3388198897881188A834645000247D1
:105C3000148B054798C3828000000000411122C4E4
:105C400026C22A84AE840946930525001305210047
:105C500006C62311010097A01700E780A0BA944060
:105C60001307802A83572100D99EBD832382F40E17
:105C700003474400B74700289387070209831D8B19
:105C8000B697238AE722B24022449244410182809F
:105C900000000000511122C226C006C43C81130737
:105CA00000052A84AE84638DE70091E7788093072E
:105CB0000005630EF702A240124482443101828043
:105CC00078819307F006E318F7FE03474500930732
:105CD000A009E312F7FE03475500A547E31DF7FCB3
:105CE000AA852685EF30D8AE3C80E9D3E9B70347D3
:105CF00044009307200FE310F7FC03475400894743
:105D0000E31BF7FA034764008547E316F7FA834776
:105D1000840003C7F40BBD8BE30FF7F89387040AE5
:105D20003E8549468145EF20B34A094693058400E4
:105D300097A01700E78000AD11469305E400138596
:105D4000240A97A01700E780E0AB11469305A40052
:105D50001385640A97A01700E780C0AA214693051F
:105D600024011385A40A97A01700E780A0A9834700
:105D70008400BD8BA38FF40A3DBF00007C8103C764
:105D8000050CBD8B6313F7008280511122C22E8453
:105D900026C093053500AA8405461305240B06C4C6
:105DA00097A01700E78000A6938574000D461305A1
:105DB000340B97A01700E780E0A4938544000D46BC
:105DC0001305640B97A01700E780C0A39385A40078
:105DD0001305940B194697A01700E780A0A2FC803A
:105DE000BD8B2300F40CA240124482443101828016
:105DF00000000000511122C22E841946930535007F
:105E00001305D42006C497A01700E780A09F8347FE
:105E1000E4200347D420920793F7073F1183D98FDB
:105E20009DCF1307F03F638CE70218401306802ACA
:105E3000B74600283306C7029386060296072297C4
